:020000040800F2
:1000000000000220C522000899020008C50200086D
:10001000BF020008B90200089D02000800000000AD
:10002000000000000000000000000000CD020008F9
:10003000E902000800000000EB020008ED020008E1
:1000400015230008152300081523000815230008B0
:1000500015230008152300081523000815230008A0
:10006000152300081523000815230008F1020008D5
:1000700019030008152300082503000815230008AC
:1000800015230008FD0200081523000815230008A9
:100090001523000815230008152300081523000860
:1000A0001523000815230008152300081523000850
:1000B0001523000815230008152300081523000840
:1000C0001523000815230008152300081523000830
:1000D0001523000815230008152300083103000824
:1000E0001523000815230008152300081523000810
:1000F0001523000815230008152300081523000800
:1001000015230008152300081523000815230008EF
:1001100015230008152300081523000815230008DF
:1001200015230008152300081523000815230008CF
:1001300015230008152300081523000815230008BF
:1001400015030008090300081523000815230008FB
:10015000152300081523000815230008152300089F
:10016000152300081523000815230008152300088F
:1001700015230008152300081523000800000000BF
:100180001523000815230008044B05481B1A062BED
:1001900002D9044B03B11847704700BF3F0200204B
:1001A0003C0200200000000005490648091A891099
:1001B00001EBD171491002D0034B03B118477047CE
:1001C0003C0200203C0200200000000010B5064C5C
:1001D000237843B9FFF7D8FF044B13B10448AFF3BA
:1001E00000800123237010BD3C02002000000000AD
:1001F000D86A000808B5084B1BB108490848AFF396
:1002000000800848036813B9BDE80840CCE7064BF6
:10021000002BF9D09847F7E70000000040020020CB
:10022000D86A0008380200200000000008B500F07D
:10023000FBFA0D4B1B6B082200211A610122197574
:100240005A759975DA7519765A769976DA760320A1
:1002500000F09AFA4FF4FA7000F0C0FB64210248F3
:1002600000F0D8FCF3E700BFF8030020002100F005
:1002700083BD032000F088BA08B50222044905486E
:1002800000F0ECFF0220BDE8084000F07DBA00BF9E
:1002900088010020900400207047000008B54FF44A
:1002A000FA7000F09BFB4FF48041024801F076FAAF
:1002B000F5E700BF000C024008B5FFF7EFFF08B5F7
:1002C000FFF7ECFF08B5FFF7E9FF000008B54FF4B2
:1002D000FA7000F083FB4FF480410248BDE808400B
:1002E00001F05CBA000C02407047704700F068BB38
:1002F000014801F0E3BC00BF7C020020014801F08E
:10030000DDBC00BF64030020014800F009BE00BF4F
:10031000F8030020FFF7F8BF014801F0CFBC00BF91
:1003200038040020014801F0C9BC00BF0C030020C4
:10033000014801F002B800BF900400200748084BB4
:100340004FF4E13C80E808100C2200238360C36076
:10035000036142618361C36100F054BF90040020D7
:1003600000480040F0B502682A4B9A4287B0054623
:100370004DD103F5F83328481A6C284C42F48022FA
:100380001A641B6C03F480230093009B4FF44063BA
:10039000019302230293012303930323049301A9EE
:1003A0000723059301F016F91D4B4FF0006784E811
:1003B00088004FF4806600232046A360E360266136
:1003C0006361A361E3612362636201F00FFC00B12A
:1003D000FEE76C63134BA563134C84E88800E06070
:1003E00040236061A061E061206260622046A360FA
:1003F000266101F0FBFB024600B1FEE72C630146DB
:100400002720A56301F088F8272001F0B5F807B090
:10041000F0BD00BF00480040000402403804002046
:1004200028600240586002400C030020204B214805
:100430001A6C70B542F008021A641B6C1E4C1F4EF9
:1004400086B003F008030093009B0923002501A94F
:1004500001930223029305930395049501F0BAF8E2
:10046000174B2360174BA5601B68636020464FF451
:100470007A73E360256101F029FE4FF4FA7360227C
:1004800086E80C0031462A462046B560356101F009
:1004900069FE0C223146204601F064FE29462046C2
:1004A00001F0D0FE0C21204601F0CCFE06B070BD5C
:1004B0000038024000000240BC030020F00200208F
:1004C000000C00408C0100202DE9F04186B04FF473
:1004D000C073019312230293012303930323049314
:1004E00004230DEB03012548059301F073F8244B19
:1004F000244E1A6C244D42F400121A641B6C03F44F
:1005000000130093009B214B00244FF000784FF420
:100510008067304686E80801B460F4603761746132
:10052000B461F4613462746201F060FB2E63B56300
:10053000174B184E86E8080130464023B360F4603C
:1005400037617461B461F4613462746201F04EFB2E
:10055000114A124BEE6285E80C0028464FF48043A6
:10056000B563AC60EC602B616C61AC61EC612C62DA
:1005700001F056FC06B0BDE8F08100BF0004024067
:10058000003802407C020020D004002010600240AD
:10059000A06002406403002000540040A0860100D7
:1005A00013B51A4C236B43F400132363236B00220F
:1005B00003F40013114600930B20009B00F0ACFFE6
:1005C0000B2000F0D9FF00221146112000F0A4FFFB
:1005D000112000F0D1FF236B43F400132363236B3E
:1005E000002203F40013114601930C20019B00F03C
:1005F00093FF0C2000F0C0FF002211460E2000F0F7
:100600008BFF0E2000F0B8FF02B010BD0038024092
:10061000334B34481A6C70B542F080621A641A6C1D
:10062000314D92B002F080620192019A1A6C42F050
:1006300000721A641B6C03F000730293029B602328
:100640000393032300240226069303A90923079397
:100650000496059400F0BEFF22462146402000F09B
:100660005BFF402000F088FF22462146412000F039
:1006700053FF412000F080FF1C4B2B601C4B2B6371
:100680001C4B6B634FF4A0232B6128464FF4E0030F
:100690006B616E60AC600126EC60AC61EC612C6259
:1006A0006C62AC62EC6200F01FFA08A928460D9457
:1006B0000E940F96089409940A940B940C94109637
:1006C000119400F099F92B6B13221A60DC609C6086
:1006D0001E611E752146284600F04EFB12B070BD0B
:1006E0000038024000040240F80300200068004087
:1006F000D40200205802002008B5032000F0FAFEC2
:10070000002211464FF0FF30BDE8084000F004BF62
:100710001B4B10B51A6B1B4C42F008021A631B6B83
:1007200086B003F008030093009B4FF4006301932D
:1007300001230293039301A902232046049300F0AE
:1007400049FF4FF4805301A92046019300F042FF76
:100750004FF4005301A92046019300F03BFF4FF4F2
:10076000804301A92046019300F034FF4FF4004379
:1007700001A92046019300F02DFF06B010BD00BF77
:1007800000380240000C024010B94FF480510DE0D7
:10079000012802D14FF4005108E0022802D14FF4A1
:1007A000804103E0032804D14FF40041014800F0E8
:1007B000F5BF7047000C0240194B10B51A6C42F09F
:1007C00080521A641B6C8EB003F080530093009B20
:1007D000144B1A6842F480421A601B6803F4804389
:1007E0000193019B0223029301230024059302A895
:1007F00010230693089400F0D5FF01F09BF94FF405
:100800007A73B0FBF3F000F0C3FE042000F0D6FED4
:10081000224621464FF0FF3000F07EFE0EB010BDA4
:1008200000380240007000402F4B00B51A6B42F0B8
:1008300001021A631A6B89B002F001020092009A59
:100840001A6B42F002021A631A6B02F00202019262
:10085000019A1A6B42F004021A631A6B02F0040246
:100860000292029A1A6B42F008021A631A6B02F0A3
:1008700008020392039A1A6B42F001021A631A6B80
:1008800002F001020492049A1A6B42F002021A6307
:100890001A6B02F002020592059A1A6B42F00402EA
:1008A0001A631A6B02F004020692069A1A6B42F05F
:1008B00008021A631B6B03F008030793079B00F001
:1008C00065F8FFF779FFFFF723FFFFF715FFFFF745
:1008D00067FEFFF733FDFFF7F7FDFFF799FEFFF720
:1008E000A5FD09B05DF804FB0038024010B50268B0
:1008F0001B4B9A4288B031D103F5E83300241A6CBF
:10090000184842F080621A641A6C02F08062019208
:10091000019A1A6C42F000721A641B6C059403F081
:1009200000730293029B6023039302230493032327
:10093000069303A90923079300F04CFE22462146A3
:10094000402000F0E9FD402000F016FE4120224644
:10095000214600F0E1FD412000F00EFE08B010BD80
:10096000006800400004024010B5044601F0E2F8BF
:100970004FF47A73B0FBF3F000F00AFE4FF0FF3053
:100980002146002200F0C8FD002010BD08B50B4B29
:100990001A6842F400721A601A6842F480621A609F
:1009A0001A6842F480721A60032000F0A3FD0F2041
:1009B000FFF7DAFFFFF7A0FE002008BD003C024071
:1009C000024A136801331360704700BF0C05002012
:1009D000014B1868704700BF0C05002013B501904B
:1009E000FFF7F6FF0446FFF7F3FF019B001B984259
:1009F000F9D302B010BD00003A4B4A6930B5D3F8C4
:100A0000004244F00104C3F80042D3F8004224F449
:100A10007C54C3F80042D3F800424D6A44EA0524EE
:100A2000C3F800420120D3F81C529040C443254033
:100A3000C3F81C52CD698DB9D3F80C522540C3F8C8
:100A40000C528B88CD6843EA0545D30003F18043FF
:100A500003F5C8430A88C3F8405212E0012D15D1AE
:100A6000D3F80C520543C3F80C528B880D6843EA47
:100A70000545D30003F1804303F5C8438A89C3F8D1
:100A800040528D6842EA0542C3F844228B69154AF8
:100A90001BB9D2F80432234002E0D2F804320343F7
:100AA000C2F804320D690F4B2DB9D2F814522C4004
:100AB000C2F8144206E0012D02BFD3F8142202430B
:100AC000C3F814220A6A012A02BFD3F81C22104379
:100AD000C3F81C02D3F8002222F00102C3F800225E
:100AE000002030BD0064004070B50446002800F0CE
:100AF0008F8090F8383003F0FF021BB980F839205E
:100B0000FFF7F4FE022384F8383023681A6822F0D5
:100B100002021A601A6842F001021A60FFF758FFD9
:100B2000064623685A6812F001050AD1FFF750FF04
:100B3000801B0A28F5D9032084F8380084F839503E
:100B400070BD5A68D10760D5A269012A1A680CBF26
:100B500042F0800222F080021A60E269012A1A68DB
:100B60000CBF42F0400222F040021A60226A012AC1
:100B70001A680CBF42F0200222F020021A60626A5A
:100B8000012A1A680CBF42F0100222F010021A600B
:100B9000A26A012A1A680CBF42F0080222F0080279
:100BA0001A60E26A012A1A680CBF42F0040222F0BD
:100BB00004021A60A268E168114322691143626964
:100BC00011436268013A0A43DA611A6822F00102AD
:100BD0001A60FFF7FDFE054623685A68D2070BD559
:100BE000FFF7F6FE401B0A28F6D90320002384F8FD
:100BF000380084F8393070BD586810F0010004D115
:100C00000123E06384F8383070BD042384F8383061
:100C1000012070BDF8B590F83930012B04460D461F
:100C20001CD0012380F8393090F838300168222B2D
:100C30000CBF3223122380F838308B6858010FD450
:100C40008B681A010ED48B6813F080530CD10422E8
:100C500084F8382084F839300120F8BD0220F8BD2E
:100C6000002602E0012600E002264FEA061E01EB04
:100C70000E02D2F8803103F00103C2F88031236BF9
:100C80009F68D86837B9D2F8807138431F6840EA46
:100C9000475007E0D2F880C14CEA070738435F6845
:100CA00040EAC700C2F88001186900F00F0018611F
:100CB000D2F8847127F00F07C2F88471D2F88471DA
:100CC0003843C2F88401987DDF7D000440EA076064
:100CD0001F7D38435F7D714440EA0720C1F88801D9
:100CE00001F5C477997ED87E090441EA0060197E37
:100CF0005B7E014341EA03237B60D2F8803143F0FD
:100D00000103C2F88031FFF763FE074623689A6843
:100D10001EB9164B1548134008E0012E0BBF144BAB
:100D2000144B134813480CBF13401340181A18BF34
:100D3000012078B16B1CE9D035B90320002384F879
:100D4000380084F83930F8BDFFF742FEC01BA842D6
:100D5000DCD9F2E794F8383084F83900322B0CBF34
:100D60002223012384F83830F8BD00BF03000004BB
:100D7000000300080000031090F83830DBB2012BAC
:100D800010B501D0122B34D190F83930012B30D06E
:100D9000012380F8393090F83830122B0CBF322301
:100DA000222380F8383000220368C2635C6944F46F
:100DB00080745C615C6944F400745C615C6944F457
:100DC00080645C615C6944F400645C615C6944F467
:100DD00000445C6180F8392029B95A6942F0020266
:100DE0005A61084610BD596941F010015961104619
:100DF00010BD022010BD704738B50468426B04EB8B
:100E00000113D3F8B05105F00405956025B9D3F866
:100E1000B0516D0D156003E0D3F8B051ED08556089
:100E2000D3F8B05105F00205D560D3F8B45105F000
:100E30000F051561D3F8B431C3F30723D3610B0158
:100E40001C44D4F8B84114750268446B1A44D2F8B3
:100E5000B821120A62750268446B1A44D2F8B821AC
:100E6000120CA2750268446B1A44D2F8B821120E13
:100E7000E2750268446B1A4402F5DC72526822760D
:100E80000268446B1A4402F5DC725268120A6276F8
:100E90000268446B1A4402F5DC725268120CA276A6
:100EA000426B0468234403F5DC735B681B0ED37646
:100EB000036839B9DA6842F02002DA605A6922F030
:100EC000020206E01A6942F020021A615A6922F011
:100ED00010025A6190F83820222A13D15A6922F45C
:100EE00080725A615A6922F400725A615A6922F476
:100EF00080625A615A6922F400625A615A6922F486
:100F000000425A6190F83830322B0CBF1223012373
:100F100080F83830FFF7AAF9002038BD704700008C
:100F200038B503685A69D507044638D59D68604AC4
:100F3000996898680A405F4929405E4DA94207D0E8
:100F40005B498A4204D05C4A5B4902408A4226D10E
:100F50005A6922F001025A6194F83820122A13D1FA
:100F60005A6922F480725A615A6922F400725A61F5
:100F70005A6922F480625A615A6922F400625A6105
:100F80005A6922F400425A6194F83830322B0CBF6F
:100F90002223012384F838302046FFF72CFF2368F2
:100FA000DA685B69900705D0990703D520460021D0
:100FB000FFF722FF23681A695B69920705D0DD06F7
:100FC00003D520460121FFF717FF23689869596967
:100FD0005A69C0070BD5C90509D5150441BFE26B95
:100FE00042F00102E2636FF0010248BF9A61986922
:100FF00059695A6980070BD5890509D5150441BF80
:10100000E26B42F00202E2636FF0020248BF9A61B3
:10101000986959695A6940070BD54D0509D51004DF
:1010200041BFE26B42F00402E2636FF0040248BF8A
:101030009A61986959695A6910F0700F2FD00905A3
:101040002DD512042BD59A6902F07002302A16D0E1
:1010500007D8102A0FD0202A1DD1E26B42F01002CF
:1010600018E0502A0FD0602A11D0402A13D1E26B29
:1010700042F040020EE0E26B42F008020AE0E26B4E
:1010800042F0200206E0E26B42F0800202E0E26BF6
:1010900042F48072E2639A6922F070029A61E36B13
:1010A0002BB1012384F838302046FFF737FF38BDD5
:1010B0000003000803000004000003102DE9F843BA
:1010C00006683369054623F44052C3682969C0693C
:1010D0001343AA683361F36811436A6923F4164322
:1010E0000A43024323F00C031343F360736923F4B0
:1010F0004072AB69B0F5004F43EA020373613F4BA6
:1011000036D19E4203D003F580639E4216D100F093
:1011100041FD6F68192460437F00B0FBF7F700F0D2
:1011200039FD6A684FF064086043B7FBF8F7520076
:101130003F01B0FBF2F900F02DFD15E000F014FDC9
:101140006F68192460437F00B0FBF7F700F00CFDD7
:101150006A684FF064086043B7FBF8F752003F013C
:10116000B0FBF2F900F000FD44436868400034E051
:101170009E4202D0224B9E4216D100F00BFD6F68BA
:1011800019246043BF00B0FBF7F700F003FD6A6865
:101190004FF064086043B7FBF8F792003F01B0FBE3
:1011A000F2F900F0F7FC15E000F0DEFC6F6819249E
:1011B0006043BF00B0FBF7F700F0D6FC6A684FF061
:1011C00064086043B7FBF8F792003F01B0FBF2F907
:1011D00000F0CAFC444368688000B4FBF0F0B0FB48
:1011E000F8F008FB109212013232B2FBF8F303F070
:1011F0000F033B43B360BDE8F88300BF001001401C
:101200000014014010B5044630B390F8393003F0B3
:10121000FF021BB980F83820FFF7A4F822680223E8
:1012200084F83930D36823F40053D3602046FFF7A5
:1012300045FF23681A6922F490421A615A6922F024
:101240002A025A61DA6842F40052DA60002001236F
:10125000E06384F8393010BD012010BD38B5134665
:1012600090F83920D2B2012A04460D4601D0122A44
:101270002BD145B33BB394F83820012A25D0012265
:1012800084F838200022E26394F83920606BA3854B
:10129000122A0CBF3222222284F839200C4AA5627D
:1012A0002168C2630B4A02640B4A826404312A46F5
:1012B00000F0D6FC22685369002043F040035361DC
:1012C00084F8380038BD012038BD022038BD00BF89
:1012D000DD120008111300081D13000802681268CF
:1012E00012F4807208B5836B0DD11968DA854A69EA
:1012F00022F040024A6193F83920322A0CBF1222B0
:10130000012283F839201846FEF7B6FF08BD704762
:1013100008B5806BFFF7FBFF08BD7047806B08B511
:101320000023C385C384012380F83930C36B43F0A5
:101330001003C363FFF7F1FF08BD1FB50368196809
:10134000DA68C90704460AD5D00508D51A6800929C
:101350005A680092009AE26B42F00102E263196857
:101360005A6989070AD5D00708D51A6801925A68C0
:101370000192019AE26B42F00402E26319685A6931
:1013800049070AD5D00708D51A6802925A6802920E
:10139000029AE26B42F00202E26319685A69090795
:1013A0000AD5D00708D51A6803925A680392039A9F
:1013B000E26B42F00802E2631968DA68890642D5F6
:1013C000900640D594F8392002F0EF02222A3AD153
:1013D000A2682169B2F5805FA26A0BD15B6821B96E
:1013E000C3F3080322F8023B02E0DBB222F8013B20
:1013F000A2620AE019B9511CA1625B6804E05B6853
:10140000511CA16203F07F031370E38D013B9BB27B
:10141000E385C3B92368DA6822F02002DA6094F821
:101420003920322A1FBFDA6822F48072DA605A69E2
:101430001BBF22F001025A611223012384F83930C4
:101440002046FEF719FF23681968DA68090628D5CF
:10145000100626D594F8392002F0DF02122A20D196
:10146000A268B2F5805F226A0AD11188C1F308012F
:101470005960216909B9023200E00132226203E0B9
:10148000511C216212785A60E28C013A92B2E284D5
:101490003AB9DA6822F08002DA60DA6842F0400293
:1014A000DA601968DA68490619D5520617D5DA687C
:1014B00022F04002DA6094F83920322A1FBFDA683D
:1014C00022F48072DA605A691BBF22F001025A616D
:1014D0002223012384F839302046FEF7CAFEE36B4D
:1014E0002BB1012384F839302046FFF716FF04B0F2
:1014F00010BD0000074AD36823F4E0631B041B0CF3
:1015000043F0BF6343F4003300F0070043EA0023D5
:10151000D360704700ED00E0154BDB68C3F3022396
:1015200070B5C3F107051C1D042D28BF0425062C2A
:101530008CBF033B0023012404FA03F6AC40013CBA
:10154000013E214099403240002842EA01024FEA20
:101550000212AFBF00F1604000F00F00054BD2B2A5
:10156000A5BF00F56140D2B21A5480F8002370BDC7
:1015700000ED00E014ED00E04109012300F01F0040
:10158000024A834042F82130704700BF00E100E08A
:101590000138B0F1807F3FBF064B074A5860F02109
:1015A0003FBF82F8231000200722986034BF1A60E2
:1015B0000120704710E000E000ED00E0044B1A68E5
:1015C00004280CBF42F0040222F004021A607047A3
:1015D00010E000E02DE9F3410F6800220123934061
:1015E00003EA07059D4240F0CB804C6824F0100CC4
:1015F000BCF1020F14D14FEAD20E00EB8E0E02F0B6
:101600000706DEF82030B6004FF00F0808FA06F89B
:1016100023EA08080B69B34048EA0303CEF82030F8
:101620004FEA420E0323066803FA0EF3DB4303EA94
:10163000060804F0030606FA0EF60CF1FF3C48EA31
:101640000606BCF1010F066011D8866803EA060C95
:10165000CE6806FA0EF64CEA06068660466826EA6A
:10166000050CC4F3001696404CEA06064660C668B0
:1016700003EA060C8B6803FA0EF64CEA0603C36015
:10168000E3007DD5424B5E6C46F480465E645B6C45
:1016900022F0030606F1804603F4804306F59C36EB
:1016A000019302F0030C019BD6F808E04FEA8C0C82
:1016B0000F2303FA0CF32EEA030E364B984222D086
:1016C00003F58063984220D003F5806398421ED0D2
:1016D00003F5806398421CD003F5806398421AD0CA
:1016E00003F58063984218D003F58063984216D0C2
:1016F00003F58063984214D003F5806398420CBFD1
:10170000082309230EE000230CE001230AE0022352
:1017100008E0032306E0042304E0052302E0062397
:1017200000E0072303FA0CF343EA0E03DFF868E056
:10173000B360DEF80030EE4314F4803F14BF2B4357
:101740003340CEF80030DEF80430DFF84CE014F41B
:10175000003F14BF2B433340CEF80430DEF808308E
:1017600014F4801F14BF2B433340CEF80830DEF84A
:101770000C30A40254BF06EA03051D43064BDD608E
:101780000132102A7FF42AAF02B0BDE8F08100BF19
:101790000038024000000240003C014043695940CB
:1017A000416170470368F7B50446D80703D423683E
:1017B00099074CD499E08A4B9A6802F00C02042AEB
:1017C00007D09A6802F00C02082A0BD15B685A0213
:1017D00008D5834B1B689B03E9D56368002BE6D1D2
:1017E000012061E17F4D00232B70FFF7F1F80646E1
:1017F0007B4B1B689F0308D5FFF7EAF841F288335B
:10180000801B9842F4D903204EE123792B70636842
:1018100073B1FFF7DDF80546714B1B689E03C6D414
:10182000FFF7D6F841F28833401B9842F4D9EAE733
:10183000FFF7CEF805466A4B1B689803B7D5FFF74C
:10184000C7F841F28833401B9842F4D9DBE7644B78
:101850009A6812F00C0F07D09A6802F00C02082A5E
:1018600016D15B68590213D45D4B1A68920702D5F2
:10187000E268012AB4D11968F82090FAA0F0226930
:10188000B0FA80F021F0F80182400A431A602CE09F
:10189000E268554BDAB101221A60FFF799F8054664
:1018A0004F4803689F0705D4FFF792F8401B642850
:1018B000F6D9A8E70268F82191FAA1F12369B1FAF3
:1018C00081F122F0F8028B40134303600DE01A60AF
:1018D000FFF77EF80546424B1B689E0705D5FFF7CC
:1018E00077F8401B6428F6D98DE723681D0703D4D9
:1018F000236858074BD51FE062693C4B72B1012247
:101900001A60FFF765F80546354B5B6F9907EFD412
:10191000FFF75EF8401B6428F6D974E71A60FFF7FA
:1019200057F805462E4B5B6F9A07E1D5FFF750F845
:10193000401B6428F6D966E7294B1A6C42F08052A6
:101940001A641B6C2A4A03F080530193019B1368AD
:1019500043F480731360FFF73BF80546244B1B6884
:10196000DB0517D5234D00232B70FFF731F8064612
:101970001B4B1B6F9F0713D4237A2B70A368FBB1FB
:10198000FFF726F80546164B1B6F9E0710D5A26978
:1019900092BB6EE0FFF71CF8401B6428DED932E7EB
:1019A000FFF716F841F28833801B9842E0D92AE706
:1019B000FFF70EF841F28833401B9842E3D922E743
:1019C000FFF706F80546064B1B6F9807DFD5FEF7B5
:1019D000FFFF41F28833401B9842F4D913E700BF60
:1019E000003802400238024000004742800E474261
:1019F00000700040703802402C4B9B6803F00C03D1
:101A0000082B3FF4EDAE2A4D0023022A2B603ED175
:101A1000FEF7DEFF06462548036899012BD447F6FA
:101A2000C07797FAA7F74FF44036B7FA87F796FAD8
:101A3000A6F64FF07061B6FA86F691FAA1F1E36965
:101A4000226AB1FA81F11A43636ABB401A43A36A5E
:101A50005B08013BB3401343E26A8A40134343608F
:101A600001232B60FEF7B4FF0446104B1B689A015C
:101A700007D5002018E0FEF7ABFF801B6428CAD909
:101A8000C1E6FEF7A5FF001B6428EED9BBE6FEF712
:101A90009FFF0446054B1B689B01EAD5FEF798FFA4
:101AA000001B6428F6D9AEE603B0F0BD0038024052
:101AB0006000474210B51C4CA36803F00C03042BD4
:101AC0002ED0082B2ED1626802F03F03626847F6E1
:101AD000C07112F4800F626891FAA1F147F6C070EC
:101AE00000EA020008BF114AB1FA81F120FA01F0C0
:101AF0000EBFB2FBF3F20E49B1FBF3F202FB00F3AF
:101B0000094A50684FF4403292FAA2F200F4403091
:101B1000B2FA82F2D04001304000B3FBF0F010BDC9
:101B2000034810BD014810BD003802400024F400F5
:101B300040787D0108B5FFF7BDFF084BF0229B6898
:101B400092FAA2F203F0F003B2FA82F2D340044A0E
:101B5000D35CD840034B186008BD00BF003802407A
:101B6000086800088C01002008B5FFF7E3FF074B69
:101B70004FF4E0529B6892FAA2F203F4E053B2FAF7
:101B800082F2D340024AD35CD84008BD00380240FC
:101B90000868000808B5FFF7CDFF074B4FF4604217
:101BA0009B6892FAA2F203F46043B2FA82F2D34045
:101BB000024AD35CD84008BD0038024008680008DB
:101BC0000368DAB223F47F7323F003031821103A79
:101BD000B2FBF1F20449032A88BF0433895C036530
:101BE0004165006D704700BF1868000838B50446AD
:101BF000002831D00168194A022380F835300B687B
:101C000080681A4063681843E368184323691843DF
:101C100063691843A3691843E3691843236A0343BC
:101C20001343626A042A01BFE06A256B2843034319
:101C30000B604B69042A23F0070343EA020304BF45
:101C4000A26A13434B612046FFF7BAFF002001232D
:101C5000E06484F8353038BD012038BD3F8010F095
:101C600030B590F83440012C4FF0020423D080F8B6
:101C700035400468012580F83450256825F00105B9
:101C80002560256825F48025256063608368402BE6
:101C90000BBFA260A160E160E260236843F01E0315
:101CA0002360636943F080036361236843F00103A9
:101CB0002360002030BD204630BD000070B5056DAA
:101CC000416D2A6808238B401342044615D00268F0
:101CD00011684E0711D5116821F004011160AB6045
:101CE000C36C43F00103C364042380F83530002340
:101CF00080F83430836C03B19847616D454B2A6896
:101D00008B40134216D022685169090612D55169D9
:101D100021F080015161AB60E36C43F00203E364A6
:101D2000042384F83530002384F83430A36C0BB1DD
:101D300020469847616D384B2A688B40134216D075
:101D4000226811688E0712D5116821F00201116016
:101D5000AB60E36C43F00403E364042384F83530A0
:101D6000002384F83430A36C0BB120469847616D92
:101D70002B6810228A401A421ED02368196808076F
:101D80001AD51968490308D5AA601A6812030CD538
:101D90001B681E030CD5412308E01968C8055EBF07
:101DA000196821F008011960AA60312384F83530E0
:101DB000236C0BB120469847616D2B6820228A4026
:101DC0001A4226D023681968C90622D519684E031D
:101DD00009D5AA601A68150301D4636C14E01B6866
:101DE000180316D50FE01968C9055EBF196821F000
:101DF00010011960AA60E36CE364112384F83530A4
:101E0000002384F83430E36B1BB12046BDE87040FA
:101E1000184770BD0100800004008000704700007A
:101E200070B50446002860D090F8353003F0FF020A
:101E30001BB980F83420FFF7F1FF22682C4D0223F4
:101E400084F83530136823F001031360FFF78CFE2C
:101E5000636822682749B0FBF1F1AB422E4688BF88
:101E60004FF49675516082BF69434FF47A75B1FBA8
:101E7000F5F1B34201F10101116208D85B00B0FB3A
:101E8000F3F0C0F30B03032B98BF042016E0A16806
:101E900049B903EB4303B0FBF3F0C0F30B0363B1A9
:101EA00040F400400AE019214B43B0FBF3F0C0F3CB
:101EB0000B0313B140F4404000E00120216AE369C4
:101EC000D0610B431360E16823690B439360A16900
:101ED00063690B43D360136843F001031360002070
:101EE0000123A06384F8353070BD012070BD00BFB0
:101EF000A086010040420F00036A23F00103036241
:101F0000036A426870B584690D6824F07304254340
:101F100023F002048B6823430C4CA04209D004F543
:101F20008064A04205D042604A68856142630362D2
:101F300070BDCC688E6923F0080323434C6922F4FA
:101F40004072344323F004032243ECE700000140D5
:101F5000036A23F480730362036A426830B5C4697C
:101F60000D6824F073042C438D6823F4007343EA56
:101F700005230E4DA84209D005F58065A84205D07D
:101F800042604A68C461C263036230BDCD6823F415
:101F9000006343EA05234D6922F4405242EA0512E8
:101FA0008D6923F4806342EA0512E9E700000140ED
:101FB000036A23F48053036230B5046A4368C2693C
:101FC0000D6822F4E64242EA05228D6824F40054AA
:101FD00044EA0534094DA84209D005F58065A842B8
:101FE00005D043604B68C2610364046230BD4D6933
:101FF00023F4804343EA8513F3E700BF0000014068
:10200000704700002E4A0368904212D0B0F1804F12
:102010000FD0A2F57C4290420BD002F58062904234
:1020200007D002F58062904203D002F578429042D8
:1020300018D14A6823F070031343214A904237D0E5
:10204000B0F1804F34D01F4A904231D002F5806207
:1020500090422DD002F58062904229D002F578425C
:10206000904225D0184A904222D002F580629042D8
:102070001ED002F5806290421AD0A2F598329042AA
:1020800016D002F58062904212D002F58062904232
:102090000ED003608B68C3620B688362084B984262
:1020A0000BD003F58063984207D00123436170474A
:1020B000CA6823F440731343EBE70B690363F4E747
:1020C00000000140000400400040014010B50446FB
:1020D000A0B190F8393003F0FF021BB980F8382026
:1020E000FFF78EFF022384F839302068211DFFF7A7
:1020F00089FF012384F83930002010BD012010BD74
:10210000036A23F010030362036A426830B58469EE
:102110000D6824F4E64444EA05248D6823F0200386
:1021200043EA05130E4DA84209D005F58065A84283
:1021300005D042604A6884618263036230BDCD6825
:1021400023F0800343EA05134D6922F4406242EA1A
:1021500085028D6923F0400342EA8502E9E700BF6A
:102160000000014038B590F83830012B04460D4688
:102170004FF0020058D0012384F8383084F8390039
:102180000C2A4BD8DFE802F0074A4A4A174A4A4A63
:10219000294A4A4A39002068FFF7AEFE23689A6947
:1021A00042F008029A619A6922F004029A619969E0
:1021B0002A690A430FE02068FFF7A2FF2368296914
:1021C0009A6942F400629A619A6922F480629A6183
:1021D0009A6942EA01229A6120E02068FFF7B8FE7E
:1021E0002368DA6942F00802DA61DA6922F004024F
:1021F000DA61D9692A690A430FE02068FFF7D8FE3F
:1022000023682969DA6942F40062DA61DA6922F442
:102210008062DA61DA6942EA0122DA610123002090
:1022200084F8393084F8380038BD10B50123046AC9
:102230008B4024EA03030362036A8A401343036268
:1022400010BD000010B5044601220068FFF7EDFF45
:102250002368084A934203D002F58062934203D177
:102260005A6C42F400425A641A6842F001021A6041
:10227000002010BD000001400F49D1F8883043F420
:102280007003C1F888300D4B1A68002042F001023B
:102290001A6098601A6822F0847222F480321A6000
:1022A000074A5A601A6822F480221A60D8604FF0F8
:1022B00000638B60704700BF00ED00E00038024013
:1022C00010300024DFF834D0002103E00C4B5B58C1
:1022D000435004310B480C4B42189A42F6D30B4A38
:1022E00002E0002342F8043B094B9A42F9D3FFF77E
:1022F000C3FF00F03DF8FDF799FF70470000022092
:10230000DC6A0008880100203C0200203C0200201A
:1023100020050020FEE7000031F0004210B40B461B
:1023200008D01149A3F580148C4208D804205DF828
:10233000044B704718B902205DF8044B704703F155
:10234000FF43094903F5E0038B42EFD9B2F5801F43
:1023500001D20320EBE7054B9A4201D00020E6E7CB
:10236000B0FA80F04009E2E7FFFFDF7F0000F07F76
:1023700070B50E4B0E4CE41AA41000251E46A54263
:1023800004D056F8253098470135F8E704F030FAC4
:10239000084C094BE41AA41000251E46A54204D09F
:1023A00056F8253098470135F8E770BD3002002017
:1023B00030020020340200203002002010B5431EFD
:1023C0000A44914204D011F8014B03F8014FF8E799
:1023D00010BD02440346934202D003F8011BFAE702
:1023E00070472DE9F04788B0002B149F1299109E7A
:1023F000DDF84CA01D4627F02007BBBF03F10043CA
:102400001D4600232D231446B8BF1446462F0B70DB
:1024100003D0452F03D1013601E0032300E002235E
:1024200007AA049206AA03928DE8480422462B4686
:1024300001F07AFD472F804602D1119BDB0728D59A
:10244000462F08EB060911D198F80030302B0AD13D
:10245000002200232046294604F0F2F818B9C6F1FC
:102460000106CAF80060DAF800309944002200231F
:102470002046294604F0E4F808B9302202E0CDF8FD
:102480001C9006E0079B994503D9591C07911A70C7
:10249000F8E7079B159AC8EB03034046136008B0A2
:1024A000BDE8F08773B503460029B8BF494203F879
:1024B000022BB4BF2D222B220929427019DD0DF108
:1024C000070216460A2591FBF5F405FB141130317D
:1024D000092C02F8011D2146F5DC3031541E02F8AA
:1024E000011CB4421A460AD214F8012B03F8012B3E
:1024F000F7E730241A46214402F8024B5970101AAB
:1025000002B070BD2DE9F04F8FB00C4616461F4645
:10251000DDF86080054602F0C1FDD0F800B05846F5
:1025200000F0C4FD00230C93D8F800300890073366
:1025300023F0070303F1080294F81890C8F800206C
:10254000D3E90023C4E91223D4E91201FFF7E4FE22
:10255000012819D100220023D4E9120104F07AF8ED
:1025600010B12D2384F843309A4B9B4AB9F1470FA1
:102570008CBF9046984603232361236823F004030D
:1025800023604FF0000A93E0D4E91201FFF7C4FE84
:10259000236848B9914A9249B9F1470F8CBF8846E0
:1025A000904603222261E9E7D4F804E0BEF1FF3F40
:1025B000D4E9120101D106220AE0B9F1670F02D075
:1025C000B9F1470F05D1BEF1000F40F0B6810122ED
:1025D0006260002206920CAA43F4806305920BAA63
:1025E0002360039201930DF12B0263680292009322
:1025F00002460B46CDF810902846FFF7F2FE09F090
:10260000DF03472B804609D10B9BD81C02DB626895
:10261000934230DDA9F102095FFA89F9B9F1650F3A
:102620000B9912D801394A4604F150000B91FFF77B
:1026300039FF0C9A8318012A8246236102DC226842
:10264000D1072FD5013323612CE0B9F1660F14D1E6
:102650000029636807DD216113B92268D2071DD5FF
:1026600001330B4419E013B92268D00701D50233B6
:1026700013E0012311E04FF067090B9B0C9A934282
:1026800005DB22682361D10708D5013305E0002B63
:10269000D4BFC3F102030123134423610B9BA36541
:1026A0004FF0000A9DF82B3013B12D2384F84330EE
:1026B000009733460DAA2146284600F059F901300B
:1026C00002D14FF0FF3050E123685A0501D423694D
:1026D00065E0B9F1650F40F2D58000220023D4E90E
:1026E000120103F0ADFF78B301233E4A314628467C
:1026F000B8470130E5D00C9B0B9A9A420BDB23685C
:10270000D80708D423689B0740F111814FF00008D7
:1027100004F1190906E1089B5A4631462846B84794
:102720000130CED04FF0000804F11A090C9B013B98
:102730009845E7DA01234A4631462846B847013032
:10274000BFD008F10108F1E70B9B002B29DC012326
:10275000244A31462846B8470130B2D00B9B23B9F2
:102760000C9B13B92368D907CCD5089B5A46314630
:102770002846B8470130A4D04FF0000904F11A0AE6
:102780000B9B5B42994509DA0123524631462846A4
:10279000B847013095D009F10109F1E70C9B424699
:1027A000A7E00C9AA36D9A42A8BF1A46002A914648
:1027B00007DC04F11A034FF0000A29EAE9790993CA
:1027C0001CE01346314642462846B8470130F0D156
:1027D00077E700BF22680008266800082A6800081A
:1027E0002E680008326800080123099A31462846FD
:1027F000B84701303FF465AF0AF1010AA36DC9EB98
:1028000003029245F0DB08EB03090B9A0C9B9A42FA
:102810000FDB2368DA070CD40C9B0B9A9844C9EBA6
:1028200008089B1A9845A8BF9846B8F1000F08DC25
:102830000FE0089B5A4631462846B8470130EBD195
:102840003FE743464A4631462846B84701303FF401
:1028500038AF4FF0000928EAE87804F11A0A09E0D5
:102860000123524631462846B84701303FF429AF8C
:1028700009F101090B9A0C9B9B1AC8EB03039945BC
:10288000EEDB3FE70C9A012A01DCDB0738D5012398
:10289000424631462846B84701303FF412AF089B04
:1028A0005A4631462846B84701303FF40AAF002265
:1028B0000023D4E9120103F0C3FE20B14FF0000859
:1028C00004F11A090EE00C9B08F10102013B19E02A
:1028D00001234A4631462846B84701303FF4F1AE5D
:1028E00008F101080C9B013B9845F1DB534604F1CC
:1028F000500231462846B84701307FF403AFE0E686
:102900000123424631462846B8470130EED1D8E689
:1029100001234A4631462846B84701303FF4D1AE3C
:1029200008F10108E3680D9A9B1A9845F0DBE0680E
:102930000D9B9842B8BF184617E0002206920CAAD9
:1029400005920BAA43F4806303920DF12B022360DE
:10295000029201930246CDF81090CDF800E00B46AC
:102960002846FFF73EFD80464EE60FB0BDE8F08FEB
:102970002DE9F04791461F460A698B68DDF82080F3
:102980009342B8BF1346C9F8003091F84320064679
:102990000C4612B10133C9F800302368990642BFD2
:1029A000D9F800300233C9F80030256815F0060563
:1029B00010D104F1190A07E0012352463946304686
:1029C000C04701301AD00135E368D9F800209B1ABE
:1029D0009D42F1DB94F843302268003318BF012395
:1029E00092060FD5E1185A1C302081F8430022448A
:1029F00094F8451082F84310023303E04FF0FF30A3
:102A0000BDE8F08704F1430239463046C047013043
:102A1000F4D02268D9F80050E36802F00602042AD4
:102A200008BF5D1B2269A3680CBF25EAE575002578
:102A30009342C4BF9B1AED184FF000091A344D455C
:102A400009D00123224639463046C0470130D5D04F
:102A500009F10109F3E70020BDE8F0872DE9F04313
:102A600017460A7E85B06E2A984606460C460C9B91
:102A700001F1430E00F0AE8011D8632A22D009D8AC
:102A8000002A00F0BB80582A40F0CA8081F8452017
:102A9000834955E0642A1ED0692A1CD0C0E0732AFD
:102AA00000F0B08009D86F2A2ED0702A40F0B8808C
:102AB0000A6842F020020A603EE0752A24D0782A93
:102AC0003AD0ADE01A6801F14205111D1960136892
:102AD00084F84230A8E021681A6811F0800F02D013
:102AE000111D196008E011F0400F02F10401196096
:102AF00002D0B2F9003000E01368002B3CDA2D223E
:102B00005B4284F8432037E021681A6811F0800F97
:102B100002D0111D196007E011F0400F02F104010D
:102B2000196001D0138800E01368227E5C496F2A87
:102B300014BF0A2208221BE078225A4984F8452053
:102B40002268186812F0800F00F104051D6003D19F
:102B5000550601D5038800E00368D00744BF42F062
:102B6000200222601BB9226822F02002226010227B
:102B7000002084F8430001E049490A226568A56005
:102B8000002D08DB206820F0040020602BB9002D08
:102B90007DD175460CE0002B79D07546B3FBF2F081
:102BA00002FB1033CB5C05F8013D03460028F5D14C
:102BB000082A0BD12368DA0708D5236962689A428C
:102BC000DEBF302305F8013C05F1FF35C5EB0E03F0
:102BD00023612EE008681A68496910F0800F03D05D
:102BE000101D1860136808E010F0400F02F1040097
:102BF0001860136801D0198000E019600023236178
:102C0000754616E01A68111D196015686268002182
:102C1000284602F055FA08B1401B6060636804E082
:102C200004F1420584F8422001232361002384F843
:102C30004330CDF800803B4603AA21463046FFF7DB
:102C400097FE013002D14FF0FF3026E023692A467B
:102C500039463046C0470130F5D023689B0710D570
:102C6000002504F1190907E001234A463946304698
:102C7000C0470130E7D00135E368039A9B1A9D42B3
:102C8000F2DBE068039B9842B8BF184605E00B787A
:102C900084F8423004F142058AE705B0BDE8F083CC
:102CA00034680008456800082DE9F04F9A468B68A3
:102CB00016465A1EB2F5AE7F87B083BF6FF4AE7270
:102CC0009B180193002386BF40F25D138B60019334
:102CD0000B68884643F4F06348F81C3B4FF0000B48
:102CE00007460C4645465A46CDF810B0CDF80CB014
:102CF000D946CDF808B0A168002900F0E580336816
:102D00001B78492B70D016D8392B0DD8312B40D2D7
:102D10002D2B46D002D82B2B43D0D5E02E2B00F004
:102D20009280302B23D0CFE0452B00F09580462BAE
:102D300077D0412B0CE0652B00F08E800AD8542B05
:102D400075D002D84E2B34D0BEE0592B75D0612BF4
:102D500046D0B9E06E2B2CD004D8662B61D0692BFD
:102D600042D0B1E0742B62D0792B66D0ACE0206801
:102D700010F4807F0DD0019B20F08000206009F1CD
:102D80000109002B00F08780013B01310193A16014
:102D900081E012EB0B0F40F09780216821F4C071A5
:102DA00005E02168080640F18F8021F08001216054
:102DB0006FE06AB9B9F1000F0CD1216801F4E0604D
:102DC000B0F5E06F06D121F4F0612160012260E0EE
:102DD000022A5DD0BBF1010F1ED0BBF1040F1AE037
:102DE000012A71D1022254E0BBF1000F0ED1B9F1DA
:102DF000000F6CD1216801F4E060B0F5E06F6AD19A
:102E000021F4F06121604FF0010B42E0BBF1030FB0
:102E100002D0BBF1050F57D10BF1010B5FFA8BFB11
:102E200037E0BBF1020F4FD14FF0030B31E0BBF1A4
:102E3000060F49D14FF0070B2BE0BBF1070F43D131
:102E40004FF0080B25E0216888053DD521F420715D
:102E50002160CDF808901CE0216801F4A060B0F575
:102E6000806F04D048052FD5B9F1000F33D0880505
:102E70005CBF0298049521F4F06158BFC0EB0900D3
:102E800041F4C07158BF039021604FF0000900E089
:102E900003222B700135A368013BA3602369013332
:102EA00023617368013B002B736003DD33680133DA
:102EB000336020E7D4F88031059231463846984790
:102EC000059A00283FF417AFB9F1000F03D023682B
:102ED00023F480732360013A012A0ED845450AD9AC
:102EE000D4F87C3115F8011D3246384698472369DD
:102EF000013B2361F2E70126AAE00BF1FF33062B29
:102F000022D8BBF1020F12D9ABF1030B5FFA8BFB96
:102F1000CBEB050B5D4517D0D4F87C3115F8011DBE
:102F20003246384698472369013B2361F2E745451D
:102F3000E1D9D4F87C3115F8011D3246384698475E
:102F40002369013B2361F2E72368DA052CD55B0591
:102F50000CD54545CFD9D4F87C3115F8011D324642
:102F6000384698472369013B2361F2E715F8011CB5
:102F70002369652903F1FF3305F1FF3B23610DD080
:102F800045290BD0D4F87C3132463846984723691E
:102F900015F8021C013BA5F1020B2361D4F87C312A
:102FA0003246384698475D46266816F010064ED1E0
:102FB0002E70236803F4C063B3F5806F05D1029BC4
:102FC000C3EB09035A4263B915E0039B9BB1049913
:102FD0000A2332460131384600F08EFE039B049DE1
:102FE000C21A04F26F139D4228BF04F5B7751A493F
:102FF000284600F037F800224146384600F080F8B5
:103000002268DAF8003012F0020F8046894603D0B9
:103010001A1DCAF8002006E012F0040F03F10402A2
:10302000CAF8002003D01B68C3E900890BE01D68C3
:10303000FFF772F910B900F011F803E04046494675
:1030400003F078FB2860E3680133E36000E00026CA
:10305000304607B0BDE8F08F56680008004870475A
:103060000000C07F0EB400B59CB04FF402711DABE0
:10307000ADF81410029006906FF000410A480491D8
:1030800007914FF6FF7153F8042BADF81610006846
:10309000019302A902F050FD029B00221A701CB09D
:1030A0005DF804EB03B07047F0010020034613F80D
:1030B000012B002AFBD1181A013870472DE9F04185
:1030C0000F46904602F012FB04460D46B8F1000F81
:1030D00011D0C7F30A53C3F16B03002B0BDD1B05A3
:1030E00003F17F55002405F5401522462B4603F0D9
:1030F0003FF8BDE8F08120462946BDE8F081000098
:103100002DE9F04F9FB0002380460C4615921A938C
:103110004FF0000A4FF0000B1991199B1A780D2AF5
:1031200005D8092A13D2002A00F0AF8112E02B2A19
:1031300004D02D2A04D0202A0CD108E0002200E07F
:10314000012209925A1C19925B782BB99DE1013337
:103150001993E2E700230993199D2B78302B5CD15A
:103160006B78582B01D0782B4CD1099B01931AAB6B
:103170000093A84A1BAB19A9404601F0BCFC10F013
:103180000706044600F08585062E05D1013500238B
:103190001995099300F07DBD1A9A3AB135211CA802
:1031A00002F08CFB1A99404602F00FF8062E22D846
:1031B000DFE806F0040D08181D0D04004FF0000BA9
:1031C000DA4618E0DDF870A0DDF874B013E01D9B5E
:1031D0001B9ADDF870A023F4801302F2334243EA15
:1031E000025B08E0DFF830B24FF0000A03E06FF056
:1031F000004B4FF0FF3A210740F14B854BF0004B5D
:1032000000F047BD199B5A1C19925B78302BF9D0FE
:10321000002B00F03E85012300E000230893199B5A
:103220000A9300230393059304930A22199D2E7891
:10323000A6F13003D9B2092911D804990829D5BFBC
:103240000599039902FB013302FB0133D4BF0593B7
:103250000393049B0135013304931995E6E7404637
:1032600001F01CFF0768404601F018FF0068FFF7F7
:103270001DFF39460246284602F062FD074628B186
:1032800000203346049D024601465AE0404601F0C4
:1032900005FF0068FFF70AFF199B1A181992049A94
:1032A0001B5C002A45D11046302B05D1199B5A1CB6
:1032B000199201305B78F7E7A3F13102082A46D86A
:1032C000199A0A92024600200546303B00F101019E
:1032D00029D00A4405EB000C29460A2661450FD087
:1032E000013101F1FF3EBEF1080F03DC059F77437A
:1032F0000597F3E71029DEBF039F77430397EDE7B8
:103300002844082800F1010505DC05980A2101FB85
:103310000033059306E0102DDFBF03980A2101FB5F
:10332000003303930021199B581C19905B780846C1
:1033300002E0049D38463A46A3F130010929C4D978
:103340000121652B01D0452B51D16DB904E0652BCE
:1033500040F0AD840022012128B9089B002B00F029
:103360009480054600E00025199C631C199363783E
:103370002B2B06D02D2B02D00026069606E001232B
:1033800000E000230693A31C1993A378A3F1300651
:10339000092E2BD8302B04D1199B5E1C19965B7813
:1033A000F8E7A3F13106082E21D8A3F1300E199BBE
:1033B0004FF00A0C1F46199B5E1C19965B78A3F10F
:1033C0003009B9F1090F04D80CFB0E3EAEF1300EF6
:1033D000F1E7F61B082E44F61F6902DCF145A8BF91
:1033E000F146069E2EB1C9F1000902E019944FF092
:1033F0000009002D51D1002840F04B84089A002A82
:1034000040F04784002940D14E2B1FD006DC492BC9
:1034100009D03AE0706800080000F07F692B02D004
:103420006E2B13D031E0A74919A801F095FD60B3C8
:10343000199BA549013B19A8199301F08DFD10B9FD
:10344000199B01331993DFF89CB21AE09F4919A820
:1034500001F082FDC8B1199B1B78282B0FD11CAA43
:103460009B4919A801F08BFD052808D11D9BDDF8AB
:1034700070A043F0FF4B4BF4E00B00F00ABCDFF808
:1034800068B24FF0000A00F004BC159B1994002BA1
:1034900000F00A8400230993FDE3049B0598002BA8
:1034A00008BF2B46102D2C46C2EB0909A8BF1024DB
:1034B000049302F0E7FD092C82468B4613DD854B11
:1034C00003EBC40353E9122302F052FE06460398AD
:1034D0000F4602F0D7FD02460B463046394602F051
:1034E00095FC82468B460F2D36DCB9F1000F00F0BB
:1034F000D08324DDB9F1160F07DC764D05EBC90941
:1035000052465B46D9E9000114E0C5F1250399450F
:1035100022DC704CC5F10F0504EBC501C5EB0905B4
:1035200052465B46D1E9000104EBC50402F020FEDF
:10353000D4E9002302F01CFE82468B46A9E319F170
:10354000160F09DB634DA5EBC909D9E900235046E5
:10355000594602F037FFEFE72C1B4C44002C56DD98
:1035600014F00F010AD05B4B03EBC10152465B46DE
:10357000D1E9000102F0FCFD82468B4634F00F04D5
:1035800000F0B680B4F59A7F0BDD0024A1460594C7
:1035900004942223C8F80030DFF848B14FF0000A45
:1035A0007AE100234C4E2411504659461F46012C07
:1035B0000ADDE20704D5D6E9002302F0D9FD012394
:1035C000013764100836F2E70BB182468B46424B56
:1035D000ABF1547B03EBC70752465B46D7E90001CA
:1035E00002F0C6FD21F000438B460A461B0D3B4905
:1035F0001B058B428246C8D8A1F580118B4286BF3D
:10360000DFF8E8B04FF0FF3A02F1547B70E06FD082
:10361000644214F00F020AD02E4B03EBC203504653
:103620005946D3E9002302F0CDFE82468B46241191
:103630005ED01F2C04DD0024A1460594049424E1EF
:1036400014F0100F0CBF00236A23254E039350463D
:1036500059460023002C09DDE20704D5D6E90023F2
:1036600002F086FD012364100836F3E70BB18246B1
:103670008B46039BEBB1CBF30A53C3F16B03002BD7
:10368000594616DD1F2B0EDD342BDEBF203B4FF0DD
:10369000FF3202FA03F34FF0000ACCBF4FF05C7B1D
:1036A00003EA010B05E04FF0FF3202FA03F303EAED
:1036B0000A0A002200235046594602F0C1FF0028A2
:1036C000B9D117E027680008B46900082F6800081E
:1036D0005C680008C8690008906A00080000A07CC7
:1036E000886800080000F07F0000F8FFFFFFEF7F10
:1036F00000230393059B0093049A0A992B464046A6
:1037000001F0B5FD059000283FF43FAFB9F1000F7F
:10371000C9F10003A8BF00230E93002429EAE9732E
:103720000F93A146059B4046596801F019FD04908E
:1037300000283FF42EAF059B1A69023203F10C01F9
:1037400092000C30FEF73AFE1CAB01931BAB0093CA
:1037500052465B464046CDE90AAB02F038F81A9073
:1037600000283FF416AF0121404601F00BFE8146D0
:1037700000283FF40EAF1B9B03991C9D002BADBF8F
:103780000E9A0F9A0E9FD718B8BFD21AA3EB010357
:103790002B44B249A8BF0F9A013B8B42C5F13605B5
:1037A00080F28680C91A1F29A5EB01054FF00100A0
:1037B00077DC00FA01F31493002306937E19039B30
:1037C000B74215441D443B46A8BF3346AB42A8BF91
:1037D0002B46002BC2BFF61AED1AFF1A0E9B002BC8
:1037E0006BD1002E00F382800F9B002B40F088806D
:1037F000002D00F38F80002F00F39680049A1A9911
:10380000404601F014FF044600283FF4C2AEC368EE
:1038100008930023C360494601F0EDFE002880F2C2
:103820009180089B002B40F00D82BAF1000F40F010
:103830000982CBF31303002B40F004822BF00043EA
:103840001B0D1B05B3F1D66F40F2FC816369002BA1
:1038500074D021460122404601F07CFE49460446D0
:1038600001F0C9FE002840F3ED812BF00043039ADC
:103870001B0D1B05002A00F09480B3F1D66F00F3F6
:103880009080B3F15C7F00F3DF8122234FF0000AC8
:103890004FF0000BC8F80030059B002B40F0E5818D
:1038A000F7E16F4E1490F61A00FA06F3069385E7D7
:1038B000002306930123149380E749461A464046A5
:1038C00001F0FAFD814600283FF463AE01461A9AE2
:1038D000404601F060FD089000283FF45AAE1A9966
:1038E000404601F072FC089B1A937AE732461A9917
:1038F000404601F02FFE1A9000287FF475AF48E68D
:103900000F9A0499404601F0D7FD049000287FF4F7
:103910006FAF3EE62A460499404601F01BFE049034
:1039200000287FF468AF34E649463A46404601F045
:1039300011FE814600287FF461AF2AE62369012B3E
:1039400087DC7FE162D1089ACBF3130322B34549A8
:103950008B425A462ED1039B514663B1424B1340D2
:10396000B3F1D46F07D81B0DC3F16B034FF0FF30D9
:1039700000FA03F301E04FF0FF338B421AD13B49C9
:103980008A4202D101333FF404AE374B134003F5B2
:10399000801B4FF0000A55E163B9BAF1000F09D15D
:1039A00063E7A3F580136FEA135B6FEA0B5B4FF0DD
:1039B000FF3A47E1069B13B113EA0B0F02E0149B99
:1039C00013EA0A0F00F03E81089B039A50465946BD
:1039D00053B1FFF773FB02460B46DDE90A0102F023
:1039E00015FA82468B462DE1FFF768FB02460B462F
:1039F000DDE90A0102F008FA0022002382468B4624
:103A000002F01EFE00287FF440AF1BE1494620462D
:103A100001F02BFF00224FF0804306460F4602F0D4
:103A200023FE002841D0089B13B10022104B0FE069
:103A3000BAF1000F03D1CBF313033BB91CE0BAF189
:103A4000010F03D1BBF1000F3FF41FAF094B002260
:103A5000CDE906230026064F3CE000BF02FCFFFF35
:103A6000E2FBFFFFFFFF0F000000F07FFFFFEF7F93
:103A70000000F03F0000F0BF0022994B304639466D
:103A800002F0E8FD40B9304639460022954B02F07D
:103A90006FFB06460F4601E0924F002607F10043F8
:103AA00016961793DDE9162312E08E4B3046394601
:103AB000002202F05DFB089B06460F4623B901F188
:103AC00000431090119301E0CDE91067DDE9102368
:103AD000CDE906232BF000452D0D834B2D059D428E
:103AE0002BD1DDE90A23ABF1547B50465946CDE991
:103AF0000C2301F0FBFD02460B46DDE9060102F056
:103B000037FB52465B4602F081F921F000431B0D62
:103B1000764A1B05934282460CD9754B0D9A9A4200
:103B200003D10C9B01333FF434ADDFF8C4B14FF047
:103B3000FF3A76E001F1547B3BE0039B3BB3B5F1E8
:103B4000D46F24D85EA3D3E900233046394602F06F
:103B50008BFDB8B13946304602F0CCFD002808BFD5
:103B6000012002F08FFA089B06460F4623B901F1A7
:103B700000431290139301E0CDE91267DDE91223AF
:103B8000CDE90623079B03F1D6635B1B0793DDE9B1
:103B90000A01DDE906AB01F0A9FD02460B465046DD
:103BA000594602F0E5FADDE90A2302F02FF98246D0
:103BB0008B46039B002B34D12BF000431B0D1B05C0
:103BC0009D42CDF828B02CD13946304602F06AFD2E
:103BD00002F068FA0B4602463946304602F014F904
:103BE000089BCDE9060133B9BAF1000F03D10A9B56
:103BF000C3F313067EB134A3D3E90023DDE9060144
:103C000002F028FD88BB32A3D3E90023DDE90601D9
:103C100002F03EFD04E030A3D3E9002302F01AFDD8
:103C200018BB1A99404601F0D0FA0499404601F0B9
:103C3000CCFA4946404601F0C8FA2146404601F018
:103C4000C4FA6FE5039B83B12A4B0D9300230C93B9
:103C500050465946DDE90C2302F08AFA82468B462B
:103C600019B910B92223C8F800301A99404601F05A
:103C7000ACFA0499404601F0A8FA4946404601F0E2
:103C8000A4FA0599404601F0A0FA2146404601F009
:103C90009CFA159B13B1159A199B1360099B1BB1D4
:103CA00050460BF1004107E05046594604E000251C
:103CB0002A460121FFF747BB1FB0BDE8F08F00BFC8
:103CC0000000C0FFFFFFDF419535A094FFFFDF3FFD
:103CD00035E5AF350000E03F9535A094FFFFCF3FBD
:103CE0000000F03F0000E03F0000E07FFFFF9F7C0E
:103CF000FFFFEF7F000050392DE9F0478046404834
:103D0000D0F800900F463D4615F8014B09EB040032
:103D1000407800F0080000F0FF0608B12F46F2E7F7
:103D20002D2C03D1BD1C7C78012603E02B2C04BF75
:103D30007C78BD1C13B1102B0AD15BE0302C57D11D
:103D4000287800F0DF0058284DD16C781023023518
:103D5000002E14BF4FF0004C6FF0004C0027BCFB4E
:103D6000F3FA384603FB1ACC09EB040E9EF801E087
:103D70001EF0040F01D0303C0BE01EF0030E1BD0F0
:103D8000BEF1010F0CBF4FF0370E4FF0570ECEEBC8
:103D90000404A34210DDB7F1FF3F0AD0504506D816
:103DA00001D1644503DC03FB0040012701E04FF033
:103DB000FF3715F8014BD7E77B1C0CD1002E4FF0D5
:103DC000220314BF4FF000406FF00040C8F80030ED
:103DD0002AB9BDE8F08706B1404272B107B1691E49
:103DE0001160BDE8F0873024002BB1D10823AFE784
:103DF0000A23ADE7302CA3D0AAE7BDE8F08700BFC7
:103E0000F40100202DE9F74F03690C699C428046BC
:103E100000F38380013C01F114074FEA840E00F1A6
:103E2000140657F8245006EB0E030193013556F89B
:103E30002430B3FBF5F507EB0E09002D39D04FF018
:103E4000000A3846B446D34650F8042B93B205FB1B
:103E500003A34FEA134A9BB2C3EB0B03120CBCF84B
:103E600000B005FB02A213FA8BF34FEA124A1FFAC5
:103E700082FBDCF80020CBEB124202EB23429BB228
:103E800043EA024381454FEA224B4CF8043BDBD224
:103E900056F80E306BB9019B043B9E421A4602D382
:103EA000C8F8104005E01268043B002AF8D1013C34
:103EB000F3E7404601F09FFB00282CDB013530463C
:103EC0004FF0000E57F8041BD0F800C08AB2C2EBC6
:103ED0000E03090C13FA8CF3C1EB1C4202EB2342D4
:103EE0009BB243EA0243B9454FEA224E40F8043BF5
:103EF000E8D256F8242006EB840362B9043B9E42C4
:103F00001A4602D3C8F8104005E01268043B002AA4
:103F1000F8D1013CF3E7284600E0002003B0BDE8FB
:103F2000F08F0000000000002DE9F04F456A97B0C7
:103F30008246239CCDE9022345B9102001F0B2F856
:103F4000CAF82400456085600560C560DAF8243051
:103F5000196859B15A684A60012393408B605046F2
:103F600001F033F9DAF8243000221A60039BA04AEA
:103F7000002BBFBF01232360039B23F00043B8BF86
:103F80000393DDF80C80A4BF0023236028F00043D6
:103F90001B0D1B0593421DD1229A42F20F73136031
:103FA000029B43B9934A944BC8F31300002814BFF3
:103FB0001846104600E09048249B002B00F04A85EC
:103FC000C37813B100F1080300E0C31C249A136006
:103FD00000F040BDDDE902450022002320462946CD
:103FE00002F02EFB074658B1229A01231360249B4E
:103FF000002B00F0228581481860013800F02ABDAE
:1040000014AB019315AB009322462B46504601F0AA
:10401000DEFBC8F30A56059056B1C5F3130343F00F
:104020007F51204641F44011A6F2FF3611971DE062
:10403000159B149E1E4406F23243202B0ADD029A81
:1040400006F21240C3F1400322FA00F008FA03F32B
:10405000184304E0C3F12000029B03FA00F002F0D1
:1040600011F80123A1F1F871013E11930022644B74
:1040700001F0CAFE58A3D3E9002302F079F858A34F
:10408000D3E9002301F0C2FE044630460D4602F09B
:1040900009F855A3D3E9002302F06AF802460B465B
:1040A0002046294601F0B2FE04460D4602F0FAFA17
:1040B0000022834600232046294602F0CBFA58B15D
:1040C000584601F0EFFF02460B462046294602F013
:1040D000B7FA08B90BF1FF3BBBF1160F0DD84949F0
:1040E00001EBCB01DDE90223D1E9000102F0D0FAB6
:1040F00030B10BF1FF3B002300E00123109300E0FF
:104100001090149B9E1B731E089343BFC3F10009BC
:10411000002308934FF00009BBF1000F07DB089B59
:10412000CDF834B05B4408930023099306E0CBF14B
:10413000000309930023CBEB09090D93209B092B66
:1041400027D8052BC4BF043B2093209BA3F1020377
:10415000CCBF00250125032B20D8DFE803F0060E95
:104160000204012302E0012308E000230C93219BB9
:10417000002B1CDD069398461EE000230C93219B28
:104180005B4403F1010806934346012BB8BF0123AA
:1041900012E00125002320930C9501E001230C93EC
:1041A0004FF0FF33069398460022122303E00123C9
:1041B000069398461A462192DAF82440002262605B
:1041C000042101F114029A421ED862680132626031
:1041D0004900F6E7AFF3008061436F63A787D23FE2
:1041E000B3C8608B288AC63FFB799F501344D33FE6
:1041F0000000F07FB1690008BA6900083368000860
:104200000000F83FC86900086168504600F0A8FF48
:10421000DAF8243020601B680793B8F10E0F00F223
:104220005D81002D00F05A819DED027BBBF1000FF6
:104230008DED0E7B31DDA04A0BF00F0302EBC303C3
:1042400093ED007B4FEA2B14E2068DED0A7B0CD533
:104250009A4BDDE90E01D3E9082302F0B3F804F02C
:104260000F04CDE90201032600E00226934D6CB154
:10427000E30708D5DDE90A01D5E9002301F078FF5D
:10428000CDE90A01013664100835F0E7DDE90A23BB
:10429000DDE9020102F096F820E0CBF1000404B35E
:1042A000854B864D04F00F0203EBC203D3E90023D4
:1042B000DDE90E0101F05CFFCDE9020124110023CC
:1042C000022654B1E70705D5D5E9002301F050FFD8
:1042D0000136012364100835F3E71BB1CDE9020173
:1042E00000E00226109BEBB1DDE902450022744B91
:1042F0002046294602F0AEF9A0B1B8F1000F11D066
:10430000069B002B40F3E6800BF1FF330A9300225B
:104310006C4B2046294601F02BFF0136CDE9020106
:10432000069F02E0CDF828B04746304601F0BAFEBD
:10433000DDE9022301F01CFF0022634B01F066FD62
:104340000446A1F15075CFB90022604BDDE90201AE
:1043500001F05AFD22462B46CDE9020102F098F900
:10436000002840F04182224605F10043DDE90201C8
:1043700002F070F9002840F02E82ABE00C9A4E4B10
:10438000791E002A4AD003EBC103D3E900230020A1
:104390004F4902F017F822462B4601F035FD079CE5
:1043A00005460E46DDE9020102F07CF9129001F0AB
:1043B00079FE02460B46DDE9020101F025FD129B64
:1043C000303304F8013B2A463346CDE9020102F0BE
:1043D00041F9002840F02183DDE90223002038491B
:1043E00001F012FD2A46334602F034F9002840F06D
:1043F000D280079BE31ABB426CDA0022314B28467D
:10440000314601F0B5FE002205460E462D4BDDE992
:10441000020101F0ADFECDE90201C3E703EBC101EA
:1044200022462B46D1E9000101F0A2FE079BCDE90F
:104430001201DC191D46DDE9020102F033F90646DE
:1044400001F030FE303602460B46DDE9020101F094
:10445000DBFC05F8016BAC42CDE902014FF0000234
:1044600023D11B4BDDE9120101F0D0FC02460B46C3
:10447000DDE9020102F00CF9002840F08C80DDE952
:1044800012230020124901F0BFFC02460B46DDE971
:10449000020102F0DFF8E8B114F8013C302B04F11E
:1044A000FF3240F0BA821446F6E7064B01F060FE98
:1044B000CDE90201BFE700BFC8690008906A0008A3
:1044C0000000F03F0000244000001C4000001440A9
:1044D0000000E03FDDE90E34CDE90234159B002BEE
:1044E0007CDBBBF10E0F79DC8F4B03EBCB03D3E905
:1044F0000067219B002B14DAB8F1000F11DC40F0AB
:104500006C810022894B3046394601F031FEDDE9ED
:10451000022302F0B3F845464646002840F05F818A
:1045200066E1079C32463B46DDE9020101F04AFFA5
:1045300002F0B8F8054601F0B5FD32463B4601F001
:1045400017FE0B460246DDE9020101F05DFC05F1B4
:10455000300E04F801EB079BC3EB040EF045CDE9E8
:1045600002012ED102460B4601F050FC80468946DE
:1045700002460B463046394602F06CF878B942469E
:104580004B463046394602F05BF8002800F047827F
:10459000E90704D443E2DDF828B000E01C4614F833
:1045A000012C392A04F1FF3307D1079A9A42F5D139
:1045B000079930220BF1010B0A701A7801321A7038
:1045C0002DE200225A4B01F0D3FD00220023CDE959
:1045D000020102F035F80028A4D020E20C9A002A4B
:1045E0002DD0209A012A0ADC119A12B103F233432A
:1045F00002E0149BC3F13603099D4C4615E0099B6C
:1046000008F1FF35AB42BFBF099B0995EA1A0D9B24
:10461000B7BF9B185D1B0D930025B8F1000FB9BF04
:10462000C8EB090400234C464346089A01211A446A
:1046300050469944089200F0A5FE064602E0099D06
:104640000C9E4C465CB1089B002B08DDA342089AE7
:10465000A8BF2346C3EB0909E41AD31A0893099BA0
:10466000002B1DDD0C9BABB185B131462A4650466F
:1046700000F022FF059A01460646504600F08BFEE8
:1046800005990746504600F0A0FD0597099B5A1B67
:1046900006D000E0099A0599504600F00DFF0590FC
:1046A0000121504600F06EFE0D9B05465BB31A4695
:1046B0000146504600F000FF209B012B054618DC08
:1046C000029B83B9039BC3F3130373B9039B23F0CA
:1046D00000473F0D3F054FB1089B013309F1010928
:1046E0000893012702E0002700E0029F0D9B73B1B1
:1046F00000E000272B6905EB8303186900F0F5FD46
:10470000C0F1200004E0209B012BD9DD0D9F01208A
:10471000089B184410F01F000ED0C0F12003042B9A
:1047200008DDC0F11C0008E0C86900080000144062
:104730000000244006D018461C30089B03448144E6
:1047400004440893B9F1000F05DD4A460599504627
:1047500000F000FF0590089B002B05DD29461A4656
:10476000504600F0F7FE0546109BEBB12946059830
:1047700000F041FF002817DA00230A22059950466D
:1047800000F03AFD0C9B05900BF1FF3B002B00F075
:104790005881002331460A22504600F02DFD069B29
:1047A000002B064637DC33E0B8F1000F2ADC209BF3
:1047B000022B27DDCDF81880069B83B929460522F8
:1047C000504600F019FD01460546059800F013FF1C
:1047D00000280DDC03E03D4600E000252E46219B2D
:1047E000079C6FEA030B0AE0DDF828B03D463E4621
:1047F000079B079A5C1C312313700BF1010BB04629
:104800000026F7E00C9BCDF8188023B9079CB1E097
:10481000209B022BD0DC002C05DD31462246504681
:1048200000F098FE06469FB17168504600F098FC73
:10483000326902320446920006F10C010C30FDF799
:10484000BDFD01222146504600F084FE804600E076
:10485000B046029BDDF81C9003F001030893294643
:104860000598FFF7CFFA3146044600F13007059866
:1048700000F0C1FE424602902946504600F0D7FEA5
:10488000C36802463BB901460990059800F0B3FEA3
:10489000099A034600E0012311465046099300F0AF
:1048A00094FC099B4BB9209A3AB9089A2AB9392F36
:1048B00028D0029B002B1ADC1BE0029A002A04DBA2
:1048C0001AD1209AC2B9089AB2B9002B11DD01227F
:1048D0000599504600F03EFE2946059000F08BFEFB
:1048E000002802DC05D1FA0703D5392F0AD004F1DC
:1048F000310709F101040CE0002B09F101040BDD83
:10490000392F05D1392389F8003009F1010954E024
:10491000013789F800706DE0079B069A04F8017C66
:10492000E31A9342A1463AD000230A220599504641
:1049300000F062FC464505904FF000034FF00A027C
:104940003146504604D100F057FC0646804686E7C3
:1049500000F052FC4146064600230A22504600F071
:104960004BFC80467BE700230A220599504600F065
:1049700043FC059029460598FFF744FA00F13007FB
:1049800004F8017B079B069AE31A9342EBDB079B33
:10499000012AACBF9B180133B0469946002601227C
:1049A0000599504600F0D6FD2946059000F023FEFB
:1049B000002802DC15D1FB0713D54C4614F8013C46
:1049C000392B04F1FF3209D1079B934204D10BF13B
:1049D000010B3123079A02E01446EFE7013313700D
:1049E00008E04C4614F8013C302B04F1FF3201D1B1
:1049F0001446F7E72946504600F0E7FBB8F1000FF0
:104A00000DD02EB1464503D03146504600F0DDFBB7
:104A10004146504600F0D9FB01E0DDF828B0059989
:104A2000504600F0D2FB0023229A23700BF10103C1
:104A30001360249B1BB11C6001E008480AE0079842
:104A400008E0069B002B3FF7E1AE209B022B7FF78F
:104A5000DDAEB1E617B0BDE8F08F00BF32680008E8
:104A6000F0B506694B11B34200F1140527DA11F0D5
:104A70001F0105EB860605EB830201D1294616E0EE
:104A8000141D55F82320C1F1200ECA402B46B44214
:104A900009D2276807FA0EF73A4343F8042B54F873
:104AA000042BCA40F3E71A6052B1043308E0B24263
:104AB0000B4605D252F8043B41F8043BF7E72B467E
:104AC0005B1B9B10036103B94361F0BDA0F1300390
:104AD000092B01D820380AE0A0F16103052B01D889
:104AE000473804E0A0F14103052B02D82738C0B2B3
:104AF0007047002070472DE9F04F8BB08A469046F2
:104B00000693029000F0CAFA036803931846FEF772
:104B1000CDFA039B019003444FF0000B13F8013CC6
:104B20000793DAF8003002331F4613F8010B3028E0
:104B300002D10BF1010BF7E7FFF7C8FF0446E0B91C
:104B4000019A0399384601F0FBF8002834D1019B03
:104B5000F85CFE18FFF7BAFF80B3334618783028A8
:104B60001F4603F10103F9D0FFF7B0FFB0FA80F55B
:104B70006D0934464FF0010B01E000252C463A4602
:104B8000164601323078FFF7A1FF0028F8D1019ACC
:104B90000399304601F0D4F850B954B9019BF41888
:104BA0002246164601323078FFF790FF0028F8D1F0
:104BB00034B1A41BA40003E03E4600E004460125F6
:104BC0003378502B01D0702B2AD173782B2B08D03F
:104BD0002D2B03D0711C4FF0000905E04FF00109A7
:104BE00001E04FF00009B11C0878FFF76FFF431E8A
:104BF000DBB2182B14D8A0F1100211F8010FFFF747
:104C000065FF431EDBB2182B04D80A2303FB020204
:104C1000103AF2E7B9F1000F00D05242144400E01C
:104C20003146CAF800102DB1BBF1000F14BF0020AF
:104C300006207CE1F31B013B2946072B02DD0131F5
:104C40005B10FAE7029800F08BFA019B00F1140A5E
:104C50004FF00009C3F101030546CDF810A0CB4683
:104C60000893B7422FD2731E0593079A16F8013C9A
:104C700093420BD0BBF1200F16D1049BC3F80090D8
:104C800004334FF000090493CB460DE0059B089ACE
:104C900013449F42EED81846019A0399099301F0F4
:104CA0004FF8099B68B1E5E716F8010CFFF70EFF16
:104CB00000F00F0000FA0BF0059B49EA00090BF128
:104CC000040B1E46CDE7049840F8049BCAEB000095
:104CD000801028614701484600F007FBD8F80060C3
:104CE000381AB04226DD871B3946284600F000FE00
:104CF000C8B17B1E591103F01F024FF001095AF889
:104D0000211009FA02F20A420ED04B4502DC4FF0A4
:104D1000020909E0B91E284600F0EAFD0028F6D095
:104D20004FF0030900E0814639462846FFF798FE18
:104D30003C440CE009DA371A29463A46029800F05A
:104D400009FCE41B054600F1140A4FF00009D8F8ED
:104D500008309C4208DD0298294600F036FA149A81
:104D600000231360A320E2E0D8F80400844253DA61
:104D7000041BA6422EDCD8F80C30022B1AD0032BD1
:104D80001CD0012B1DD1A6421BD1012E0BDC069A93
:104D9000D8F80430136001232B61CAF80030149B4B
:104DA00062201D60C3E0711E284600F0A1FD0028AE
:104DB000EDD106E0159B002BE9D002E0159B002BFE
:104DC000E5D10298294600F000FA149A00231360F6
:104DD0005020ACE0671EB9F1000F06D13FB1394653
:104DE000284600F085FD814601E04FF001097A1167
:104DF000012307F01F0703FA07F75AF8223021466C
:104E00001F42284618BF49F00209361BFFF728FE4B
:104E10000227D8F8044000E00127B9F1000F00F0A4
:104E20008180D8F80C30022B0ED0032B10D0012B30
:104E300076D119F0020F73D0DAF8000049EA0009C0
:104E400019F0010F07D16BE0159BC3F10103159316
:104E5000159B002B64D0D5F810A005F114034FEA80
:104E60008A0903EB090100201A68B2F1FF3F02D062
:104E700001321A6020E043F8040B9942F4D8AB6881
:104E80009A4512DB69680298013100F069F92A69D4
:104E9000023205F10C01834692000C30FDF78EFAC8
:104EA0002946029800F091F95D462B695A1C05EBE2
:104EB00083032A6101225A61022F05F1140211D1E4
:104EC000D8F80030013B9E4227D17111012306F032
:104ED0001F0603FA06F652F821301E420CBF0227C5
:104EE00001271AE02B699A450ADA01212846FFF7C3
:104EF000B7FDD8F8083001349C423FF72CAF0BE0E7
:104F000016F01F0608D09144C6F1200659F8040C8B
:104F100000F0EBF9B042E8DB012747F0200701E0A1
:104F200047F01007149B1D60069B38461C600BB0B1
:104F3000BDE8F08FC2F10802920070B5C2F1200600
:104F40004368056803FA06F42C43D340046040F834
:104F5000043F8842F4D370BD30B5036811F8014BAB
:104F600001334CB11A78A2F14105192D98BF2032B6
:104F7000A242F3D0002030BD0360012030BD2DE9F6
:104F8000F04F0B68D0F800B05E1102EB860613F00C
:104F90001F0385B018BF0436351F1746002282460E
:104FA000019346F8042CA8462C46009291461BF823
:104FB000011F00293CD0084603920291FFF786FDAD
:104FC000039A00BB0299202916D8009B9945EEDD73
:104FD000444505D2072A03DC41462046FFF7AAFFD5
:104FE000BC4223D90023A4F1040844F8043CCDF8C2
:104FF000009044461A46DAE7292948D10BF101030B
:10500000CAF8003014E00132082A09F1010906DD6E
:10501000BC42CCD9002344F8043C0122043C216862
:1050200000F00F0040EA01102060C0E70822BEE750
:10503000B9F1000F2BD0444505D2072A03DC4146C5
:105040002046FFF777FFBC420CD93B4654F8042BAF
:1050500043F8042BA542F9D2002243F8042B9D42C9
:10506000FBD20BE0019B4BB1C3F120024FF0FF33A9
:10507000D34056F8042C134046F8043C2B6843B93F
:10508000BD4202D101232B6003E0043DF6E704207A
:1050900000E0052005B0BDE8F08F00000048704733
:1050A000F8010020024B0146186800F097BC00BFD1
:1050B000F0010020000000000000000000000000DF
:1050C00001F0FF01102A2BDB10F0070F08D010F8B9
:1050D000013B013A8B422DD010F0070F42B3F6D1BD
:1050E000F0B441EA012141EA014122F007047FF0D6
:1050F00000070023F0E80256083C85EA010586EA2D
:10510000010685FA47F5A3FA87F586FA47F6A5FA68
:1051100087F68EB9EED1F0BC01F0FF0102F0070274
:1051200032B110F8013B013A83EA010313B1F8D11F
:105130000020704701387047002D06BF3546033800
:10514000073815F0010F07D1013015F4807F02BF39
:10515000013015F4C03F0130F0BC0138704700BF8A
:1051600070B5456A04460E463DB91020FFF79AFF18
:105170006062456085600560C560656AEB6843B143
:10518000636ADB6853F8260078B1026843F826208A
:1051900017E021220421204600F0CCFB636AE8607E
:1051A000DB68002BECD1002070BD012101FA06F56F
:1051B0006A1D9200204600F0BDFB0028F3D0466037
:1051C000856000230361C36070BD70B5446A064604
:1051D0000D463CB91020FFF765FF706244608460A3
:1051E0000460C4603DB1736A6A68DB6853F82210DA
:1051F000296043F8225070BD2DE9F0410D691F462A
:1052000006460C4601F1140E0023DEF8000081B2C0
:1052100002FB01710F0C000C02FB007089B201331C
:1052200001EB00419D424FEA10474EF8041BECDCB5
:10523000D7B1A3689D4212DB616830460131FFF7A8
:105240008FFF2269023204F10C01804692000C307B
:10525000FDF7B4F821463046FFF7B7FF444604EBAC
:10526000850301355F6125612046BDE8F0812DE9A8
:10527000F8430C4615461F4609220833064693FBA1
:10528000F2F3002101229A4202DA52000131FAE7D8
:105290003046FFF765FF089B4361092D4FF001037E
:1052A000036111DD04F10908C1462C4419F8013BE2
:1052B0000146303B0A223046FFF79EFFA145F5D15B
:1052C00008EB0504083C01E00A3409252D1B63198D
:1052D0009F4208DD14F8013B0146303B0A2230466C
:1052E000FFF78AFFF3E7BDE8F883030C1B0413B94B
:1052F0000004102300E0002310F07F4F04BF0002E1
:10530000083310F0704F04BF0001043310F0404F19
:1053100004BF80000233002803DB420003D5581C81
:1053200070471846704720207047036813F0070243
:105330000BD0D90722D49A074BBF5B089B080360A8
:1053400003604CBF01200220704799B209B91B0CC1
:10535000102213F0FF0F04BF1B0A0832190704BF05
:105360001B090432990704BF9B080232D90702D4F3
:105370005B0805D00132036010467047002070477B
:105380002020704710B50C460121FFF7E9FE0122ED
:105390004461026110BD2DE9F74F14460A69236983
:1053A0009A42B8BF0B468846BCBFA0461C46D8F8F8
:1053B0001070D4F81090D8F80830D8F8041007EB23
:1053C00009069E42C8BF0131FFF7CAFE00F114056D
:1053D00005EB860C2B460022634502D243F8042BD2
:1053E000FAE704F1140208F1140102EB890301EB5E
:1053F00087070093009B0192934257D9B2F800B0FF
:10540000BBF1000F23D08946AE464FF0000859F893
:10541000044BBEF800A0A3B20BFB03A34FEA144A4F
:10542000DEF8004043444FEA14480BFB0A8404EBC7
:105430001344F2469BB243EA04434F454FEA1448F3
:105440004AF8043B01D9D646E1E7CEF80480019B37
:10545000B3F802A00432BAF1000F21D02B682C4619
:1054600089464FF00008B9F800E0B4F802B00AFB32
:105470000EBEF044A3469BB243EA08434BF8043BFC
:1054800059F8043BB4F804E01B0C0AFB03E303EBFC
:1054900018434F454FEA134801D95C46E3E7636080
:1054A0000435A7E75CF8043D13B9013E002EF9DC92
:1054B000066103B0BDE8F08F2DE9F843154612F000
:1054C000030206460F4607D0013A214C002354F848
:1054D0002220FFF791FE0746AD1036D0746A3CB922
:1054E0001020FFF7DFFD7062446084600460C460D8
:1054F000D6F82480D8F808404CB940F271213046E3
:10550000FFF740FF0023C8F80800044603604FF08F
:105510000008EB070AD5394622463046FFF73BFF25
:10552000394681463046FFF750FE4F466D100CD08D
:10553000206808B10446ECE7224621463046FFF7D2
:105540002AFF2060C0F80080F4E73846BDE8F88301
:10555000B86A00082DE9F0470C464FEA621A26693E
:105560004968A368564407469146751CAB4202DA67
:1055700001315B00FAE73846FFF7F2FD0023804671
:1055800000F114011A46534503DA41F82320013390
:10559000F9E72AEAEA73206901EB830319F01F098E
:1055A00004F1140101EB800E14D0C9F1200C00228B
:1055B000086800FA09F002439A4643F8042B51F8B0
:1055C000042B8E4522FA0CF2F2D8CAF8042042B11C
:1055D000B51C06E0043B51F8042B43F8042F8E451C
:1055E000F9D8013D3846C8F810502146FFF7EDFDC7
:1055F0004046BDE8F08703690A699B1A10B511D1CE
:1056000092001430143183180A4453F8044D52F8B0
:10561000041D8C4202D007D3012010BD9842F4D360
:10562000002010BD184610BD4FF0FF3010BD2DE911
:10563000F8430C460746114620461546FFF7DBFFA8
:10564000061E08D131463846FFF78AFD0123036163
:105650004661BDE8F883BCBF23462C4638466168E6
:10566000BABF1D4601260026FFF77AFD2B69C660EA
:10567000266905F11409143404EB860709EB830845
:1056800000F114054FF0000C54F8043B59F8042BBA
:105690001CFA83F11FFA82FE120CCEEB0101C2EB61
:1056A000134303EB214389B24FEA234CC84541EA37
:1056B0000343A64645F8043BE6D8BE450ED25EF845
:1056C000041B1CFA81F2131403EB114392B242EA59
:1056D00003424FEA234C45F8042BEEE755F8043D0E
:1056E0000BB9013EFAE70661BDE8F883104B0B40A9
:1056F000A3F15073002B02DD0020194670475B4276
:105700001B15132B4FF000004FF0000104DC4FF489
:10571000002242FA03F17047143B1E2B4FF00102A6
:10572000DABFC3F11F0302FA03F3134618467047AA
:105730000000F07FF8B5056900F1140606EB850559
:105740002F1F55F8044C2046FFF7CFFDC0F1200372
:105750000A280B6014DCC0F10B0E24FA0EF1BE42D5
:1057600041F07F5334BF55F8081C0021153004FA6E
:1057700000F021FA0EF143F4401340EA010223E065
:10578000BE423ABFA5F1080755F8081C00210B38A6
:1057900015D08440C0F1200544F07F5444F44014F7
:1057A000B74221FA05FE44EA0E038CBF57F8044CB9
:1057B000002401FA00F0EC4040EA040204E044F066
:1057C0007F5343F440130A4610461946F8BD2DE9AD
:1057D000F34101211C46089E099D9046FFF7C0FC3D
:1057E000C4F31303C4F30A5407460CB143F4801303
:1057F0000193B8F1000F19D002A840F8088DFFF707
:1058000094FD009B48B1019AC0F1200102FA01F118
:105810000B43C2407B61019200E07B61019BBB6155
:10582000002B14BF02210121396107E001A8FFF715
:105830007CFD019B7B6101213961203034B1A4F2F0
:10584000334404443460C0F1350009E007EB8103C0
:10585000A0F2324030601869FFF747FDC0EB4110FD
:105860002860384602B0BDE8F0812DE9F74388464C
:1058700069468146FFF75EFF0D46044601A9404692
:10588000FFF758FFD9F81030D8F810200F469A1AB1
:105890009DE80A00C91A01EB4213002BC8BF05EBB3
:1058A00003550646D8BFA7EB035732463B46204672
:1058B000294600F087FD03B0BDE8F083013910B53B
:1058C00049111469013102F1140300EB810103EB6A
:1058D0008404A342024604D253F8042B40F8042B5C
:1058E000F7E700238A4202D242F8043BFAE710BDF0
:1058F00000F1140200694B11984210B50CDB0CDD6D
:1059000011F01F0109D052F8234024FA01F000FAE7
:1059100001F18C420CD100E0034602EB8303934279
:1059200004D953F8041D0029F9D001E0002010BD6E
:10593000012010BD38B502FB01F4214600F04EF8FD
:10594000054618B122460021FCF743FD284638BD24
:1059500030B500293ED051F8042C0B1F1E49002AF7
:10596000B8BF9B180A680C4612B95A600B6030BD6C
:105970009A420ED919685818824204BF10685268BA
:105980005A6004BF09181960236030BD994203D8DA
:105990000A4651680029F9D1146815199D420AD1A7
:1059A0001B682344D0188142136013D10868034454
:1059B00013604B680DE002D90C23036030BD1868FA
:1059C0001C18A14204BF0C684968596004BF001943
:1059D0001860536030BD00BF1405002070B5CD1CA9
:1059E00025F0030508350C2D38BF0C25002D064683
:1059F00003DA0C233360002070BDA942F9D81F4B95
:105A00001C681A462146A1B10B685B1B0ED40B2BF8
:105A100003D90B60CC18CD501EE08C420DBF6368DB
:105A20004B686360136018BF0C4615E00C4649686C
:105A3000E9E7134C23681BB9304600F071F9206088
:105A40002946304600F06CF9431CD2D0C41C24F027
:105A50000304A0420AD1256004F10B00231D20F0AD
:105A60000700C31A09D05A42E25070BD211A3046CD
:105A700000F056F90130EED1BBE770BD14050020EF
:105A8000100500202DE9F0478E689E4282460C46A4
:105A9000914698463ED88A8912F4906F3AD025688C
:105AA00009696F1A6569022305EB450595FBF3F556
:105AB0007B1C43449D4238BF1D4653050FD52946E4
:105AC000FFF78CFF064698B13A462169FCF776FC51
:105AD000A38923F4906343F08003A38113E02A4653
